:06000000020E3802006B45
:03000B0002006B85
:0300130002006B7D
:03001B0002006B75
:0300230002006B6D
:03002B0002006B65
:0300330002006B5D
:03003B0002006B55
:0300430002006B4D
:03004B0002006B45
:0300530002006B3D
:03005B0002006B35
:0300630002006B2D
:01006B003262
:0900800002006B0002006B00029B
:08008900006B0002006B000295
:08009100006B0002006B00028D
:08009900006B0002006B000285
:0800A100006B0002006B00027D
:0800A900006B0002006B000275
:0700B100006B0002006B0070
:0901000002006B0002006B00021A
:08010900006B0002006B000214
:08011100006B0002006B00020C
:08011900006B0002006B000204
:08012100006B0002006B0002FC
:08012900006B0002006B0002F4
:08013100006B0002006B0002EC
:08013900006B0002006B0002E4
:08014100006B0002006B0002DC
:08014900006B0002006B0002D4
:08015100006B0002006B0002CC
:08015900006B0002006B0002C4
:08016100006B0002006B0002BC
:08016900006B0002006B0002B4
:08017100006B0002006B0002AC
:07017900006B0002006B00A7
:0CE0000012010002FFFFFF40FEFF0800BD
:06E00C00000C01020401FA
:0AE012000A060002FFFFFF400100B4
:0EE01C0009022E0001010080320904000004F8
:0EE02A00FFFFFF0307050202000200070504C6
:0EE038000200020007058602000200070588AC
:04E0460002000200D2
:0CE04A0012010002FFFFFF40FEFF080073
:06E05600000C01020001B4
:0AE05C000A060002FFFFFF4001006A
:0EE066000902120001010080320904000000CE
:04E07400FFFFFF03A8
:01E0780005A2
:02E0790084E041
:02E07B008AE039
:02E07D00B2E00F
:02E07F00CCE0F3
:02E08100EEE0CF
:06E0840006030000090480
:0EE08A00280346007200650065002000530068
:0EE098006F0066007400770061007200650082
:0CE0A600200046006F006C006B0073004F
:0EE0B2001A03510053003100520020002000DC
:0AE0C0005600450052004200200007
:02E0CA003F0015
:0EE0CC00220343006F006D006D0061006E00C6
:0EE0DA00640020002600200053007400610046
:06E0E800740075007300D6
:02E0EE0012031B
:0EE0F00031002E0037003300320030003500C2
:02E0FE003000F0
:08018000780BE84400600C79E3
:0D0188000190E100E4F0A3D8FCD9FAD08387
:0D019500D082F6D8FDC082C08375820022A2
:0301A200020E3E0C
:030E51000201A5F6
:0501A50012039F80FE23
:0501AA0090E68BE4F07B
:0801AF0090E6A0E0FA20E1F85F
:0101B7002225
:0A01B80090E6B9E0FABA0202803DB9
:0501C200BA05028014E3
:0501C700BA0802805D92
:0601CC00BA0B0302024918
:0601D200BA0C03020265F5
:0301D80002028E92
:0C01DB001201AA90E6BAE0FA750C40751B
:0B01E7000DE790E68BE0F50E8A821217
:0901F200084CE582600302029250
:0401FB0075820022E7
:0701FF0090E6BCE0FA600A83
:05020600BA01028008AE
:05020B00BA0217801289
:0302100002045A8B
:0D0213001201AA90E68BE0F51C90E7400276
:02022000048652
:030222000204BB18
:0402250075820022BC
:0C0229001201AA90E6BAE0FA751C4075BC
:0B0235001DE790E68BE0F51E8A8212A8
:0602400005EFE582704CA1
:03024600F582221C
:0802490090E6BAE0FABA010ADE
:0A02510090E67AE0FA4401F08037ED
:0A025B0090E67AE0FA54FEF0802DE0
:0702650090E6BAE0FA600226
:02026C00800808
:08026E0090E6007402F0801C10
:0802760090E6BAE0FABA0108B3
:08027E0090E600740AF0800C08
:0802860090E6007412F0800400
:04028E007582002253
:0302920075820171
:010295002246
:0A02960090E6B9E0FABA8102801880
:0602A000BA830302034CC7
:0502A600BA8402803A59
:0502AB00BA8502804F3E
:0502B000BA8602806423
:0302B500020348F9
:0C02B80090E6BAE0FA751C40751DE79056
:0D02C400E6BEE0F51E8A82120518E5827084
:0102D1000329
:0302D200F5822290
:0E02D50090E68AE4F090E6BEE0FA90E68BF048
:0202E300806732
:0E02E50090E678E0FA53021890E740EAF090B5
:0C02F300E68AE4F090E68B7401F0804D88
:0E02FF0090E67AE0FA53020190E740EAF090B0
:0C030D00E68AE4F090E68B7401F0803387
:0C03190090E6BAE0FA750F407510E7900E
:0D032500E6BEE0F5118A821208B0AA82BA85
:020332000004C5
:0403340075820022AC
:0E03380090E68AE4F090E6BEE0FA90E68BF0E4
:02034600800431
:040348007582002298
:03034C00758201B6
:01034F00228B
:0803500090E6B8E0FABAC00320
:0303580002029608
:08035B0090E6B8E0FABA400395
:030363000201B8DC
:030366007582009D
:010369002271
:03036A003003FD60
:05036D00120DD280F822
:010372002268
:02037300C2CFF7
:010375003255
:040376007509007590
:03037A000AE17520
:09037D000805750B01758251128F
:08038600042690E100E0FA906A
:0D038E00E00CF090E056EAF074302AFA908E
:03039B00E0CAF0C5
:01039E00223C
:09039F00120900C2AF120376122C
:0A03A800079B120A9DD2EAD2AF12A1
:0503B20004F202036AE1
:0203B700AA8218
:0503B90010990280FB19
:0203BE008A991A
:0103C000221A
:0803C100AA82AB83ACF07D00C1
:0E03C9008D060DEE2AFEE43BFF8C008E828F27
:0D03D7008388F0120E10FE8E07BE0001227A
:0E03E4008F82C002C003C004C0051203B7D050
:0903F20005D004D003D00280CE36
:0103FB0022DF
:0303FC00020843B1
:0103FF0022DB
:02040000AA82CE
:050402001203FFDAFB0C
:0104070022D2
:0304080090FB5016
:08040B00A3E582458370F9228C
:04041300AA82AB838B
:080417001204081ABAFF011BD0
:06041F00BA00F5BB00F27B
:0104250022B4
:0B042600AA8290E109E4F090E10AE5F1
:0404310008F0751C3E
:0304350009751D29
:09043800E1751E028A82C0021265
:0804410005EFE582D002700313
:03044900F5822217
:04044C0085091C857D
:030450000A1D85FD
:050453000B1E8A82026D
:02045800051885
:0E045A0075B6FFC2A0C2A2758228120400D29D
:03046800A27A0075
:03046B0020A314B7
:0E046E000A758232C002120400D002BAFF00EA
:02047C0040ED51
:04047E007582002261
:030482007582017F
:010485002254
:08048600AA82AB837C007D001B
:0D048E00AE1C7F00C3EC9EED64808FF06318
:06049B00F08095F0501600
:0E04A100EC2AF582ED3BF583E0F5B1D2A0C266
:0804AF00A00CBC00DA0D80D79F
:0304B7007582014A
:0104BA00221F
:0304BB0020A30477
:0404BE007582002221
:0304C20030A10462
:0404C5007582012219
:0304C90075820039
:0104CC00220D
:0804CD0090E6A0E0FA4401F002
:0104D5002204
:0E04D600AA8274805AFBC423541FFB740F5A71
:0D04E40090E6834BF090E683E0FA4420F0B0
:0104F10022E8
:0E04F20090E680E0FA440AF09000FA1204133B
:0E05000090E65D74FFF090E65F74FFF053919B
:09050E00EF90E680E0FA54F7F0EA
:0105170022C1
:06051800AA82E51E60024C
:02051E00800457
:0405200075820122BD
:0805240090E678E0FB20E6F808
:0E052C0090E6787480F0EA2AFA90E67974017D
:02053A004AF085
:0D053C0090E678E0FA530201BA000280F365
:0B05490090E678E0FA30E2030205E3E0
:0E05540090E678E0FA530202BA00030205E3D3
:05056200E51EB40108D4
:0805670090E678E0FA4420F070
:09056F0090E679E0F51FAA1CAB2F
:030578001DAC1E99
:04057B00DC028035E9
:0D057F0090E678E0FD530501BD000280F319
:08058C0090E678E0FD20E24F4B
:03059400BC01089F
:0805970090E678E0FD4420F03D
:0E059F0090E679E0FD8A828B83F0A3AA82ABFE
:0705AD00838A1C8B1D80C72F
:0D05B40090E678E0FA530201BA000280F3ED
:0805C10090E678E0FA20E21A4E
:0C05C90090E678E0FA4440F0AA1CAB1D5C
:0E05D50090E679E0FC8A828B83F07582012229
:0B05E30090E678E0FA4440F0758200DA
:0105EE0022EA
:0205EF00AA82DE
:0805F10090E678E0FB20E6F83B
:0D05F90090E6787480F0EA2AFA90E679F036
:0D06060090E678E0FA530201BA000280F39A
:0806130090E678E0FA20E257BE
:0D061B0090E678E0FA530202BA0002804A2D
:05062800AA1CAB1DAC93
:01062D001EAE
:05062E00EC24FF503335
:0E0633008A828B83E0FDA3AA82AB8390E679D6
:03064100EDF01CBD
:0D06440090E678E0FD530501BD000280F353
:0806510090E678E0FD20E219BB
:0B06590090E678E0FD530502BD00CAEA
:02066400800C08
:0C06660090E678E0FA4440F07582012232
:0B06720090E678E0FA4440F07582004A
:01067D00225A
:05067E00AA82BA03008E
:02068300400530
:05068500EA249C500175
:01068A00224D
:09068B00740F5AFBBB0302800747
:07069400740F5AFBBB0B477A
:0C069B00A2AF9200C2AFEA2400F582E496
:0D06A7003400F5837402F07B0074012AFC1E
:0C06B400E43BFDEC2400F582ED3400F581
:0D06C00083AC1D7D00ECF074022AFAE43BCF
:0C06CD00FBEA2400F582EB3400F583AA60
:0906D9001C7B00EAF0A20092AFC4
:0106E20022F5
:0506E300AA82BA00002C
:0206E8004005CB
:0506EA00EA2483500129
:0106EF0022E8
:0606F00074035AFB6001D7
:0106F60022E1
:0C06F700A2AF9201C2AFEA2400F582E439
:0D0703003401F5837402F07B0074012AFCC0
:0C071000E43BFDEC2400F582ED3401F523
:0D071C0083AC1D7D00ECF074022AFAE43B72
:0C072900FBEA2400F582EB3401F583AA02
:090735001C7B00EAF0A20192AF66
:01073E002298
:05073F00AA82BA80004F
:0207440040056E
:05074600EA244B500104
:01074B00228B
:06074C0074035AFB60017A
:010752002284
:0C075300A2AF9202C2AFEA2480F582E45B
:0D075F003400F5837402F07B0074012AFC65
:0C076C00E43BFDEC2480F582ED3400F548
:0D07780083AC1D7D00ECF074022AFAE43B16
:0C078500FBEA2480F582EB3400F583AA27
:090791001C7B00EAF0A20292AF09
:01079A00223C
:08079B00C2E8C2EA751C0075FA
:0607A3001D0175824312E6
:0407A900067E751C37
:0307AD0080751D37
:0D07B0000075825312067E0090E650E4F0C2
:0E07BD000090E652E4F00090E654E4F0009064
:0D07CB00E656E4F00090E65174FFF0009057
:0E07D800E65374FFF00090E65574FFF00090B9
:0E07E600E65774FFF00090E658E4F090E659F4
:0E07F40074FFF090E65AE4F090E65B74FFF0BC
:0E08020090E65CE4F090E65D74FFF090E65E38
:0E081000E4F090E65F74FFF00090E660E4F024
:0D081E000090E66174FFF090E662E4F09057
:0E082B00E66374FFF090E665E4F090E6687412
:090839000BF05391AFD2E8D2EAB2
:010842002293
:0308430075B6FF88
:01084600228F
:04084700D283C28313
:01084B00228A
:08084C00AA82E50E24FF5054BE
:0608540074FB250E404E6E
:0E085A0075B6FFD2808AB1D2811208477A00AB
:020868007B0013
:0D086A00AC0E7D00C3EA9CEB64808DF06352
:06087700F08095F0501F17
:0C087D00EA250CF582EB350DF583E0F563
:0E088900B1C002C003120847D003D0020ABA61
:0508970000D10B80CE32
:0C089C00C281120847C28075B6008004BB
:0408A8007582002233
:0308AC00850E8234
:0108AF002226
:0E08B000AA8275B6FFC2808AB1D281120847B3
:0708BE0075B6007A007B0013
:0D08C500AC117D00C3EA9CEB64808DF063F4
:0608D200F08095F0501FBC
:0D08D800C002C003120847D003D002EA2579
:0C08E5000FF582EB3510F583E5B1F00A49
:0608F100BA00D10B80CE1D
:0808F700C2811208478511823D
:0108FF0022D6
:0E09000090E6007412F0758E0490E60174E328
:0E090E00F00090E6047480F00090E60474029D
:0E091C00F00090E6047404F00090E604740607
:0E092A00F00090E6047408F00090E604E4F09B
:0E0938000075800075B20B75A00475B435759E
:0D094600B10075B6FF90E61074A0F00090AF
:0E095300E61174A0F00090E61274A0F000907F
:0E096100E61474E2F00090E61574E0F00090E9
:0D096F00E609E4F00090E6187401F0009035
:0E097C00E6187411F00090E6207402F000906E
:0D098A00E621E4F00090E61A7409F00090F8
:0D099700E6247402F00090E625E4F00090E4
:0E09A400E61B7409F00090E6267402F0009045
:0E09B200E627E4F00043AF010090E68AE4F08F
:0E09C0000090E68DE4F0007598504389207594
:0909CE008DB2D28ED2990203FC15
:0109D70022FD
:060E3800751200751300A5
:0809D80090E680E0FA30E71917
:0409E0007514007515
:0309E40015E075A6
:0309E70016127570
:0309EA0017E0759E
:0309ED00181C755E
:0309F00019E07596
:0309F3001A66750C
:0309F6001BE022E1
:0409F90075144A75B2
:0309FD0015E0758D
:030A0000165C750C
:030A030017E07584
:030A0600186675FA
:030A090019E0757C
:030A0C001A1C753C
:020A0F001BE0EA
:010A110022C2
:080A12005391EF75A100D2031E
:010A1A0032A9
:0E0A1B00C0E0C0F0C082C083C002C003C004AF
:0E0A2900C005C006C007C000C001C0D075D017
:0A0A3700005391EF75A1001209D8D9
:0E0A4100D0D0D001D000D007D006D005D00410
:0D0A4F00D003D002D083D082D0F0D0E032AE
:0E0A5C00C0E0C0F0C082C083C002C003C0046E
:0E0A6A00C005C006C007C000C001C0D075D0D6
:0A0A7800005391EF75A1001209D898
:0E0A8200D0D0D001D000D007D006D005D004CF
:0D0A9000D003D002D083D082D0F0D0E0326D
:050A9D001209D8751CD0
:030AA20012751DAD
:080AA5000A7582001206E375D8
:030AAD001C1B759A
:060AB0001D0A7582101200
:040AB60006E3751CC2
:030ABA005C751D4B
:0D0ABD000A7582141206E390E65C7431F0B5
:010ACA002209
:090ACB00E582547FFA24F750047F
:040AD4007582002205
:030AD800BA01045C
:040ADB0075820122FD
:080ADF00530201E4BA00010416
:020AE700F58296
:010AE90022EA
:050AEA00AA82BA010C14
:0C0AEF0090E6A1E0FB7C008B828C83224F
:030AFB00BA810CB1
:0C0AFE0090E6A2E0FB7C008B828C83223F
:060B0A0053027FBA000C4B
:0C0B100090E6A0E0FB7C008B828C83222E
:0E0B1C0090E6A3E0FB7C00EAC313FA7D00EA3A
:080B2A002BFBED3C8B82F583EF
:010B320022A0
:0D0B330090E6B8E0FA53021FBA00028005F8
:050B4000BA025B801207
:0A0B450090E6BAE0FABA010280055A
:050B4F00BA0202800360
:030B54001204CDBB
:070B570090E6BAE0FA60022B
:020B5E00803ED7
:0E0B600090E6BCE0FAF582120ACBE582602D29
:0E0B6E0090E6BCE0FAF582120AEAAA82AB8396
:0E0B7C0090E6BCE0FCF582C002C003120AEA5B
:0E0B8A00D003D002E0FC4304018A828B83EC8E
:030B9800F08003E7
:030B9B001204CD74
:030B9E000204CD81
:0D0BA10090E6B8E0FA53021FBA000280058A
:050BAE00BA025F800E99
:080BB30090E6BAE0FABA010372
:030BBB000204CD64
:030BBE000204CD61
:070BC10090E6BAE0FA6002C1
:020BC800804368
:0E0BCA0090E6BCE0FAF582120ACBE5826035B7
:0E0BD80090E6BCE0FAF582120AEAAA82AB832C
:0E0BE60090E6BCE0FCF582C002C003120AEAF1
:0E0BF400D003D002E0FC5304FE8A828B83EC17
:0B0C0200F090E6BCE0FAF5820204D698
:030C0D000204CD11
:030C10000204CD0E
:010C130022BE
:0D0C140090E6B8E0FA53021FBA0002800A11
:050C2100BA0102801B76
:050C2600BA0261802A02
:0E0C2B0090E7407401F090E741E4F090E68A13
:080C3900F090E68B7402F0223A
:0E0C410090E740E4F090E741F090E68AF090F2
:060C4F00E68B7402F022A6
:0E0C550090E6BCE0FAF582120ACBE58260243C
:0E0C630090E6BCE0FAF582120AEAE0FA5302CB
:0E0C71000190E740EAF090E741E4F090E68A57
:080C7F00F090E68B7402F022F4
:030C87000204CD97
:030C8A000204CD94
:010C8D002244
:0A0C8E0090E6BBE0FABA01028017FD
:050C9800BA0202803CDD
:050C9D00BA03028061B2
:050CA200BA0602801DEE
:050CA700BA07028042C3
:030CAC00020D3EF8
:0C0CAF00AA14AB158B047D0090E6B3EC9A
:090CBB00F07B0090E6B4EAF0229F
:0C0CC400AA16AB178B047D0090E6B3EC81
:090CD000F07B0090E6B4EAF0228A
:0C0CD900AA18AB198B047D0090E6B3EC68
:090CE500F07B0090E6B4EAF02275
:0C0CEE00AA1AAB1B8B047D0090E6B3EC4F
:090CFA00F07B0090E6B4EAF02260
:0E0D030090E6BAE0FA90E078E0FBC3EA9B408D
:010D110003DE
:030D12000204CD0B
:0D0D150090E6BAE0FA75F002A42479F582A8
:0D0D220074E035F0F583E0FAA3E0FB8B04EC
:0E0D2F007D0090E6B3ECF07B0090E6B4EAF0B5
:010D3D002293
:030D3E000204CDDF
:070D410090E6B9E0FA60360C
:050D4800BA0602802E36
:050D4D00BA0802800558
:050D5200BA0A2C80121A
:0C0D570090E740E512F090E68AE4F0908E
:060D6300E68B7401F02292
:0C0D690090E740E513F090E68AE4F0907B
:060D7500E68B7401F02280
:030D7B00020C8ED9
:030D7E00020C1450
:030D81000204CD9C
:010D8400224C
:0A0D850090E6B9E0FABA01028027F7
:050D8F00BA03028025FB
:050D9400BA05028023F6
:050D9900BA0702801EF4
:050D9E00BA0902800506
:050DA300BA0B168007E9
:070DA80090E6BAE0F512220B
:070DAF0090E6BAE0F5132203
:030DB600020BA18C
:030DB900020B33F7
:030DBC000204CD61
:010DBF002211
:0B0DC00090E6B8E0FA530280BA80030E
:030DCB00020D41D5
:030DCE00020D858E
:010DD10022FF
:0D0DD200C20390E6B8E0FA530260BA0002D6
:020DDF00801E74
:050DE100BA20028008A9
:050DE600BA4002800884
:030DEB00BA6016D5
:050DEE001204CD801489
:070DF300120350E582700DB0
:050DFA001204CD800889
:050DFF00120DC080038D
:030E04001204CD08
:080E070090E6A0E0FA4480F03F
:010E0F0022C0
:060E4B00E478FFF6D8FD7B
:030E3E007581209B
:0A0E4100120180E58260030201A5A2
:0E0E1000E5F0601014601514601414601314E3
:060E1E0014600374FF22C2
:080E2400C000A882E6D0002204
:020E2C00E022C2
:020E2E0093220D
:080E3000C000A882E2D00022FC
:00000001FF
